{
  "contractName": "StephenResume",
  "abi": [
    {
      "inputs": [],
      "stateMutability": "nonpayable",
      "type": "constructor"
    },
    {
      "anonymous": false,
      "inputs": [
        {
          "indexed": true,
          "internalType": "address",
          "name": "owner",
          "type": "address"
        },
        {
          "indexed": true,
          "internalType": "address",
          "name": "approved",
          "type": "address"
        },
        {
          "indexed": true,
          "internalType": "uint256",
          "name": "tokenId",
          "type": "uint256"
        }
      ],
      "name": "Approval",
      "type": "event"
    },
    {
      "anonymous": false,
      "inputs": [
        {
          "indexed": true,
          "internalType": "address",
          "name": "owner",
          "type": "address"
        },
        {
          "indexed": true,
          "internalType": "address",
          "name": "operator",
          "type": "address"
        },
        {
          "indexed": false,
          "internalType": "bool",
          "name": "approved",
          "type": "bool"
        }
      ],
      "name": "ApprovalForAll",
      "type": "event"
    },
    {
      "anonymous": false,
      "inputs": [
        {
          "indexed": true,
          "internalType": "address",
          "name": "previousOwner",
          "type": "address"
        },
        {
          "indexed": true,
          "internalType": "address",
          "name": "newOwner",
          "type": "address"
        }
      ],
      "name": "OwnershipTransferred",
      "type": "event"
    },
    {
      "anonymous": false,
      "inputs": [
        {
          "indexed": true,
          "internalType": "address",
          "name": "from",
          "type": "address"
        },
        {
          "indexed": true,
          "internalType": "address",
          "name": "to",
          "type": "address"
        },
        {
          "indexed": true,
          "internalType": "uint256",
          "name": "tokenId",
          "type": "uint256"
        }
      ],
      "name": "Transfer",
      "type": "event"
    },
    {
      "inputs": [],
      "name": "MAX_MINT_AMOUNT",
      "outputs": [
        {
          "internalType": "uint256",
          "name": "",
          "type": "uint256"
        }
      ],
      "stateMutability": "view",
      "type": "function"
    },
    {
      "inputs": [],
      "name": "MAX_SUPPLY",
      "outputs": [
        {
          "internalType": "uint256",
          "name": "",
          "type": "uint256"
        }
      ],
      "stateMutability": "view",
      "type": "function"
    },
    {
      "inputs": [
        {
          "internalType": "address",
          "name": "to",
          "type": "address"
        },
        {
          "internalType": "uint256",
          "name": "tokenId",
          "type": "uint256"
        }
      ],
      "name": "approve",
      "outputs": [],
      "stateMutability": "nonpayable",
      "type": "function"
    },
    {
      "inputs": [
        {
          "internalType": "address",
          "name": "owner",
          "type": "address"
        }
      ],
      "name": "balanceOf",
      "outputs": [
        {
          "internalType": "uint256",
          "name": "",
          "type": "uint256"
        }
      ],
      "stateMutability": "view",
      "type": "function"
    },
    {
      "inputs": [],
      "name": "baseExtension",
      "outputs": [
        {
          "internalType": "string",
          "name": "",
          "type": "string"
        }
      ],
      "stateMutability": "view",
      "type": "function"
    },
    {
      "inputs": [],
      "name": "baseURI",
      "outputs": [
        {
          "internalType": "string",
          "name": "",
          "type": "string"
        }
      ],
      "stateMutability": "view",
      "type": "function"
    },
    {
      "inputs": [],
      "name": "cost",
      "outputs": [
        {
          "internalType": "uint256",
          "name": "",
          "type": "uint256"
        }
      ],
      "stateMutability": "view",
      "type": "function"
    },
    {
      "inputs": [
        {
          "internalType": "uint256",
          "name": "tokenId",
          "type": "uint256"
        }
      ],
      "name": "getApproved",
      "outputs": [
        {
          "internalType": "address",
          "name": "",
          "type": "address"
        }
      ],
      "stateMutability": "view",
      "type": "function"
    },
    {
      "inputs": [
        {
          "internalType": "address",
          "name": "owner",
          "type": "address"
        },
        {
          "internalType": "address",
          "name": "operator",
          "type": "address"
        }
      ],
      "name": "isApprovedForAll",
      "outputs": [
        {
          "internalType": "bool",
          "name": "",
          "type": "bool"
        }
      ],
      "stateMutability": "view",
      "type": "function"
    },
    {
      "inputs": [],
      "name": "name",
      "outputs": [
        {
          "internalType": "string",
          "name": "",
          "type": "string"
        }
      ],
      "stateMutability": "view",
      "type": "function"
    },
    {
      "inputs": [],
      "name": "owner",
      "outputs": [
        {
          "internalType": "address",
          "name": "",
          "type": "address"
        }
      ],
      "stateMutability": "view",
      "type": "function"
    },
    {
      "inputs": [
        {
          "internalType": "uint256",
          "name": "tokenId",
          "type": "uint256"
        }
      ],
      "name": "ownerOf",
      "outputs": [
        {
          "internalType": "address",
          "name": "",
          "type": "address"
        }
      ],
      "stateMutability": "view",
      "type": "function"
    },
    {
      "inputs": [],
      "name": "paused",
      "outputs": [
        {
          "internalType": "bool",
          "name": "",
          "type": "bool"
        }
      ],
      "stateMutability": "view",
      "type": "function"
    },
    {
      "inputs": [],
      "name": "renounceOwnership",
      "outputs": [],
      "stateMutability": "nonpayable",
      "type": "function"
    },
    {
      "inputs": [
        {
          "internalType": "address",
          "name": "from",
          "type": "address"
        },
        {
          "internalType": "address",
          "name": "to",
          "type": "address"
        },
        {
          "internalType": "uint256",
          "name": "tokenId",
          "type": "uint256"
        }
      ],
      "name": "safeTransferFrom",
      "outputs": [],
      "stateMutability": "nonpayable",
      "type": "function"
    },
    {
      "inputs": [
        {
          "internalType": "address",
          "name": "from",
          "type": "address"
        },
        {
          "internalType": "address",
          "name": "to",
          "type": "address"
        },
        {
          "internalType": "uint256",
          "name": "tokenId",
          "type": "uint256"
        },
        {
          "internalType": "bytes",
          "name": "_data",
          "type": "bytes"
        }
      ],
      "name": "safeTransferFrom",
      "outputs": [],
      "stateMutability": "nonpayable",
      "type": "function"
    },
    {
      "inputs": [
        {
          "internalType": "address",
          "name": "operator",
          "type": "address"
        },
        {
          "internalType": "bool",
          "name": "approved",
          "type": "bool"
        }
      ],
      "name": "setApprovalForAll",
      "outputs": [],
      "stateMutability": "nonpayable",
      "type": "function"
    },
    {
      "inputs": [
        {
          "internalType": "bytes4",
          "name": "interfaceId",
          "type": "bytes4"
        }
      ],
      "name": "supportsInterface",
      "outputs": [
        {
          "internalType": "bool",
          "name": "",
          "type": "bool"
        }
      ],
      "stateMutability": "view",
      "type": "function"
    },
    {
      "inputs": [],
      "name": "symbol",
      "outputs": [
        {
          "internalType": "string",
          "name": "",
          "type": "string"
        }
      ],
      "stateMutability": "view",
      "type": "function"
    },
    {
      "inputs": [
        {
          "internalType": "address",
          "name": "from",
          "type": "address"
        },
        {
          "internalType": "address",
          "name": "to",
          "type": "address"
        },
        {
          "internalType": "uint256",
          "name": "tokenId",
          "type": "uint256"
        }
      ],
      "name": "transferFrom",
      "outputs": [],
      "stateMutability": "nonpayable",
      "type": "function"
    },
    {
      "inputs": [
        {
          "internalType": "address",
          "name": "newOwner",
          "type": "address"
        }
      ],
      "name": "transferOwnership",
      "outputs": [],
      "stateMutability": "nonpayable",
      "type": "function"
    },
    {
      "inputs": [
        {
          "internalType": "address",
          "name": "",
          "type": "address"
        }
      ],
      "name": "whitelisted",
      "outputs": [
        {
          "internalType": "bool",
          "name": "",
          "type": "bool"
        }
      ],
      "stateMutability": "view",
      "type": "function"
    },
    {
      "inputs": [],
      "name": "totalSupply",
      "outputs": [
        {
          "internalType": "uint256",
          "name": "",
          "type": "uint256"
        }
      ],
      "stateMutability": "view",
      "type": "function"
    },
    {
      "inputs": [
        {
          "internalType": "address",
          "name": "_to",
          "type": "address"
        },
        {
          "internalType": "uint256",
          "name": "_mintAmount",
          "type": "uint256"
        }
      ],
      "name": "mint",
      "outputs": [],
      "stateMutability": "payable",
      "type": "function"
    },
    {
      "inputs": [
        {
          "internalType": "address",
          "name": "_owner",
          "type": "address"
        }
      ],
      "name": "walletOfOwner",
      "outputs": [
        {
          "internalType": "uint256[]",
          "name": "",
          "type": "uint256[]"
        }
      ],
      "stateMutability": "view",
      "type": "function"
    },
    {
      "inputs": [
        {
          "internalType": "uint256",
          "name": "tokenId",
          "type": "uint256"
        }
      ],
      "name": "tokenURI",
      "outputs": [
        {
          "internalType": "string",
          "name": "",
          "type": "string"
        }
      ],
      "stateMutability": "view",
      "type": "function"
    },
    {
      "inputs": [
        {
          "internalType": "uint256",
          "name": "_newCost",
          "type": "uint256"
        }
      ],
      "name": "setCost",
      "outputs": [],
      "stateMutability": "nonpayable",
      "type": "function"
    },
    {
      "inputs": [
        {
          "internalType": "string",
          "name": "_newBaseURI",
          "type": "string"
        }
      ],
      "name": "setBaseURI",
      "outputs": [],
      "stateMutability": "nonpayable",
      "type": "function"
    },
    {
      "inputs": [
        {
          "internalType": "string",
          "name": "_newBaseExtension",
          "type": "string"
        }
      ],
      "name": "setBaseExtension",
      "outputs": [],
      "stateMutability": "nonpayable",
      "type": "function"
    },
    {
      "inputs": [
        {
          "internalType": "bool",
          "name": "_state",
          "type": "bool"
        }
      ],
      "name": "pause",
      "outputs": [],
      "stateMutability": "nonpayable",
      "type": "function"
    },
    {
      "inputs": [
        {
          "internalType": "address",
          "name": "_user",
          "type": "address"
        }
      ],
      "name": "whitelistUser",
      "outputs": [],
      "stateMutability": "nonpayable",
      "type": "function"
    },
    {
      "inputs": [
        {
          "internalType": "address",
          "name": "_user",
          "type": "address"
        }
      ],
      "name": "removeWhitelistUser",
      "outputs": [],
      "stateMutability": "nonpayable",
      "type": "function"
    },
    {
      "inputs": [],
      "name": "withdraw",
      "outputs": [],
      "stateMutability": "payable",
      "type": "function"
    }
  ],
  "bytecode": "0x60806040526040518060400160405280600581526020017f2e6a736f6e00000000000000000000000000000000000000000000000000000081525060089080519060200190620000519291906200021a565b5066b1a2bc2ec500006009556000600b60006101000a81548160ff0219169083151502179055503480156200008557600080fd5b506040518060400160405280600e81526020017f5374657068656e20526573756d650000000000000000000000000000000000008152506040518060400160405280600281526020017f535200000000000000000000000000000000000000000000000000000000000081525081600090805190602001906200010a9291906200021a565b508060019080519060200190620001239291906200021a565b505050620001466200013a6200014c60201b60201c565b6200015460201b60201c565b6200032f565b600033905090565b6000600660009054906101000a900473ffffffffffffffffffffffffffffffffffffffff16905081600660006101000a81548173ffffffffffffffffffffffffffffffffffffffff021916908373ffffffffffffffffffffffffffffffffffffffff1602179055508173ffffffffffffffffffffffffffffffffffffffff168173ffffffffffffffffffffffffffffffffffffffff167f8be0079c531659141344cd1fd0a4f28419497f9722a3daafe3b4186f6b6457e060405160405180910390a35050565b8280546200022890620002ca565b90600052602060002090601f0160209004810192826200024c576000855562000298565b82601f106200026757805160ff191683800117855562000298565b8280016001018555821562000298579182015b82811115620002975782518255916020019190600101906200027a565b5b509050620002a79190620002ab565b5090565b5b80821115620002c6576000816000905550600101620002ac565b5090565b60006002820490506001821680620002e357607f821691505b60208210811415620002fa57620002f962000300565b5b50919050565b7f4e487b7100000000000000000000000000000000000000000000000000000000600052602260045260246000fd5b613e01806200033f6000396000f3fe6080604052600436106101ee5760003560e01c806355f804b31161010d578063a22cb465116100a0578063d936547e1161006f578063d936547e146106bb578063da3ef23f146106f8578063e985e9c514610721578063f2fde38b1461075e578063fa9b701814610787576101ee565b8063a22cb46514610601578063b88d4fde1461062a578063c668286214610653578063c87b56dd1461067e576101ee565b806370a08231116100dc57806370a0823114610557578063715018a6146105945780638da5cb5b146105ab57806395d89b41146105d6576101ee565b806355f804b31461049b5780635c975abb146104c45780636352211e146104ef5780636c0360eb1461052c576101ee565b806330cc7ae01161018557806342842e0e1161015457806342842e0e146103e3578063438b63001461040c57806344a0d68a146104495780634a4c560d14610472576101ee565b806330cc7ae01461036957806332cb6b0c146103925780633ccfd60b146103bd57806340c10f19146103c7576101ee565b8063095ea7b3116101c1578063095ea7b3146102c157806313faede6146102ea57806318160ddd1461031557806323b872dd14610340576101ee565b806301ffc9a7146101f357806302329a291461023057806306fdde0314610259578063081812fc14610284575b600080fd5b3480156101ff57600080fd5b5061021a60048036038101906102159190612b43565b6107b2565b604051610227919061314f565b60405180910390f35b34801561023c57600080fd5b5061025760048036038101906102529190612b16565b610894565b005b34801561026557600080fd5b5061026e61092d565b60405161027b919061316a565b60405180910390f35b34801561029057600080fd5b506102ab60048036038101906102a69190612be6565b6109bf565b6040516102b891906130c6565b60405180910390f35b3480156102cd57600080fd5b506102e860048036038101906102e39190612ad6565b610a44565b005b3480156102f657600080fd5b506102ff610b5c565b60405161030c91906133cc565b60405180910390f35b34801561032157600080fd5b5061032a610b62565b60405161033791906133cc565b60405180910390f35b34801561034c57600080fd5b50610367600480360381019061036291906129c0565b610b73565b005b34801561037557600080fd5b50610390600480360381019061038b9190612953565b610bd3565b005b34801561039e57600080fd5b506103a7610caa565b6040516103b491906133cc565b60405180910390f35b6103c5610cb0565b005b6103e160048036038101906103dc9190612ad6565b610dac565b005b3480156103ef57600080fd5b5061040a600480360381019061040591906129c0565b610f2a565b005b34801561041857600080fd5b50610433600480360381019061042e9190612953565b610f4a565b604051610440919061312d565b60405180910390f35b34801561045557600080fd5b50610470600480360381019061046b9190612be6565b611055565b005b34801561047e57600080fd5b5061049960048036038101906104949190612953565b6110db565b005b3480156104a757600080fd5b506104c260048036038101906104bd9190612b9d565b6111b2565b005b3480156104d057600080fd5b506104d9611248565b6040516104e6919061314f565b60405180910390f35b3480156104fb57600080fd5b5061051660048036038101906105119190612be6565b61125b565b60405161052391906130c6565b60405180910390f35b34801561053857600080fd5b5061054161130d565b60405161054e919061316a565b60405180910390f35b34801561056357600080fd5b5061057e60048036038101906105799190612953565b61139b565b60405161058b91906133cc565b60405180910390f35b3480156105a057600080fd5b506105a9611453565b005b3480156105b757600080fd5b506105c06114db565b6040516105cd91906130c6565b60405180910390f35b3480156105e257600080fd5b506105eb611505565b6040516105f8919061316a565b60405180910390f35b34801561060d57600080fd5b5061062860048036038101906106239190612a96565b611597565b005b34801561063657600080fd5b50610651600480360381019061064c9190612a13565b6115ad565b005b34801561065f57600080fd5b5061066861160f565b604051610675919061316a565b60405180910390f35b34801561068a57600080fd5b506106a560048036038101906106a09190612be6565b61169d565b6040516106b2919061316a565b60405180910390f35b3480156106c757600080fd5b506106e260048036038101906106dd9190612953565b611747565b6040516106ef919061314f565b60405180910390f35b34801561070457600080fd5b5061071f600480360381019061071a9190612b9d565b611767565b005b34801561072d57600080fd5b5061074860048036038101906107439190612980565b6117fd565b604051610755919061314f565b60405180910390f35b34801561076a57600080fd5b5061078560048036038101906107809190612953565b611891565b005b34801561079357600080fd5b5061079c611989565b6040516107a991906133cc565b60405180910390f35b60007f80ac58cd000000000000000000000000000000000000000000000000000000007bffffffffffffffffffffffffffffffffffffffffffffffffffffffff1916827bffffffffffffffffffffffffffffffffffffffffffffffffffffffff1916148061087d57507f5b5e139f000000000000000000000000000000000000000000000000000000007bffffffffffffffffffffffffffffffffffffffffffffffffffffffff1916827bffffffffffffffffffffffffffffffffffffffffffffffffffffffff1916145b8061088d575061088c8261198e565b5b9050919050565b61089c6119f8565b73ffffffffffffffffffffffffffffffffffffffff166108ba6114db565b73ffffffffffffffffffffffffffffffffffffffff1614610910576040517f08c379a00000000000000000000000000000000000000000000000000000000081526004016109079061332c565b60405180910390fd5b80600b60006101000a81548160ff02191690831515021790555050565b60606000805461093c906136d5565b80601f0160208091040260200160405190810160405280929190818152602001828054610968906136d5565b80156109b55780601f1061098a576101008083540402835291602001916109b5565b820191906000526020600020905b81548152906001019060200180831161099857829003601f168201915b5050505050905090565b60006109ca82611a00565b610a09576040517f08c379a0000000000000000000000000000000000000000000000000000000008152600401610a009061330c565b60405180910390fd5b6004600083815260200190815260200160002060009054906101000a900473ffffffffffffffffffffffffffffffffffffffff169050919050565b6000610a4f8261125b565b90508073ffffffffffffffffffffffffffffffffffffffff168373ffffffffffffffffffffffffffffffffffffffff161415610ac0576040517f08c379a0000000000000000000000000000000000000000000000000000000008152600401610ab79061336c565b60405180910390fd5b8073ffffffffffffffffffffffffffffffffffffffff16610adf6119f8565b73ffffffffffffffffffffffffffffffffffffffff161480610b0e5750610b0d81610b086119f8565b6117fd565b5b610b4d576040517f08c379a0000000000000000000000000000000000000000000000000000000008152600401610b449061328c565b60405180910390fd5b610b578383611a6c565b505050565b60095481565b6000610b6e600a611b25565b905090565b610b84610b7e6119f8565b82611b33565b610bc3576040517f08c379a0000000000000000000000000000000000000000000000000000000008152600401610bba9061338c565b60405180910390fd5b610bce838383611c11565b505050565b610bdb6119f8565b73ffffffffffffffffffffffffffffffffffffffff16610bf96114db565b73ffffffffffffffffffffffffffffffffffffffff1614610c4f576040517f08c379a0000000000000000000000000000000000000000000000000000000008152600401610c469061332c565b60405180910390fd5b6000600c60008373ffffffffffffffffffffffffffffffffffffffff1673ffffffffffffffffffffffffffffffffffffffff16815260200190815260200160002060006101000a81548160ff02191690831515021790555050565b6103e881565b610cb86119f8565b73ffffffffffffffffffffffffffffffffffffffff16610cd66114db565b73ffffffffffffffffffffffffffffffffffffffff1614610d2c576040517f08c379a0000000000000000000000000000000000000000000000000000000008152600401610d239061332c565b60405180910390fd5b6000610d366114db565b73ffffffffffffffffffffffffffffffffffffffff1647604051610d59906130b1565b60006040518083038185875af1925050503d8060008114610d96576040519150601f19603f3d011682016040523d82523d6000602084013e610d9b565b606091505b5050905080610da957600080fd5b50565b80600081118015610dbd5750601581105b610dfc576040517f08c379a0000000000000000000000000000000000000000000000000000000008152600401610df3906133ac565b60405180910390fd5b6103e881610e08610b62565b610e12919061350a565b1115610e53576040517f08c379a0000000000000000000000000000000000000000000000000000000008152600401610e4a9061318c565b60405180910390fd5b600b60009054906101000a900460ff1615610e6d57600080fd5b610e756114db565b73ffffffffffffffffffffffffffffffffffffffff163373ffffffffffffffffffffffffffffffffffffffff1614610f1b5760011515600c60003373ffffffffffffffffffffffffffffffffffffffff1673ffffffffffffffffffffffffffffffffffffffff16815260200190815260200160002060009054906101000a900460ff16151514610f1a5781600954610f0d9190613591565b341015610f1957600080fd5b5b5b610f258383611e78565b505050565b610f45838383604051806020016040528060008152506115ad565b505050565b60606000610f578361139b565b905060008167ffffffffffffffff811115610f7557610f7461386e565b5b604051908082528060200260200182016040528015610fa35781602001602082028036833780820191505090505b50905060006001905060005b8381108015610fc057506103e88211155b15611049576000610fd08361125b565b90508673ffffffffffffffffffffffffffffffffffffffff168173ffffffffffffffffffffffffffffffffffffffff161415611035578284838151811061101a5761101961383f565b5b602002602001018181525050818061103190613738565b9250505b828061104090613738565b93505050610faf565b82945050505050919050565b61105d6119f8565b73ffffffffffffffffffffffffffffffffffffffff1661107b6114db565b73ffffffffffffffffffffffffffffffffffffffff16146110d1576040517f08c379a00000000000000000000000000000000000000000000000000000000081526004016110c89061332c565b60405180910390fd5b8060098190555050565b6110e36119f8565b73ffffffffffffffffffffffffffffffffffffffff166111016114db565b73ffffffffffffffffffffffffffffffffffffffff1614611157576040517f08c379a000000000000000000000000000000000000000000000000000000000815260040161114e9061332c565b60405180910390fd5b6001600c60008373ffffffffffffffffffffffffffffffffffffffff1673ffffffffffffffffffffffffffffffffffffffff16815260200190815260200160002060006101000a81548160ff02191690831515021790555050565b6111ba6119f8565b73ffffffffffffffffffffffffffffffffffffffff166111d86114db565b73ffffffffffffffffffffffffffffffffffffffff161461122e576040517f08c379a00000000000000000000000000000000000000000000000000000000081526004016112259061332c565b60405180910390fd5b8060079080519060200190611244929190612767565b5050565b600b60009054906101000a900460ff1681565b6000806002600084815260200190815260200160002060009054906101000a900473ffffffffffffffffffffffffffffffffffffffff169050600073ffffffffffffffffffffffffffffffffffffffff168173ffffffffffffffffffffffffffffffffffffffff161415611304576040517f08c379a00000000000000000000000000000000000000000000000000000000081526004016112fb906132cc565b60405180910390fd5b80915050919050565b6007805461131a906136d5565b80601f0160208091040260200160405190810160405280929190818152602001828054611346906136d5565b80156113935780601f1061136857610100808354040283529160200191611393565b820191906000526020600020905b81548152906001019060200180831161137657829003601f168201915b505050505081565b60008073ffffffffffffffffffffffffffffffffffffffff168273ffffffffffffffffffffffffffffffffffffffff16141561140c576040517f08c379a0000000000000000000000000000000000000000000000000000000008152600401611403906132ac565b60405180910390fd5b600360008373ffffffffffffffffffffffffffffffffffffffff1673ffffffffffffffffffffffffffffffffffffffff168152602001908152602001600020549050919050565b61145b6119f8565b73ffffffffffffffffffffffffffffffffffffffff166114796114db565b73ffffffffffffffffffffffffffffffffffffffff16146114cf576040517f08c379a00000000000000000000000000000000000000000000000000000000081526004016114c69061332c565b60405180910390fd5b6114d96000611eb8565b565b6000600660009054906101000a900473ffffffffffffffffffffffffffffffffffffffff16905090565b606060018054611514906136d5565b80601f0160208091040260200160405190810160405280929190818152602001828054611540906136d5565b801561158d5780601f106115625761010080835404028352916020019161158d565b820191906000526020600020905b81548152906001019060200180831161157057829003601f168201915b5050505050905090565b6115a96115a26119f8565b8383611f7e565b5050565b6115be6115b86119f8565b83611b33565b6115fd576040517f08c379a00000000000000000000000000000000000000000000000000000000081526004016115f49061338c565b60405180910390fd5b611609848484846120eb565b50505050565b6008805461161c906136d5565b80601f0160208091040260200160405190810160405280929190818152602001828054611648906136d5565b80156116955780601f1061166a57610100808354040283529160200191611695565b820191906000526020600020905b81548152906001019060200180831161167857829003601f168201915b505050505081565b60606116a882611a00565b6116e7576040517f08c379a00000000000000000000000000000000000000000000000000000000081526004016116de9061334c565b60405180910390fd5b60006116f1612147565b90506000815111611711576040518060200160405280600081525061173f565b8061171b846121d9565b600860405160200161172f93929190613080565b6040516020818303038152906040525b915050919050565b600c6020528060005260406000206000915054906101000a900460ff1681565b61176f6119f8565b73ffffffffffffffffffffffffffffffffffffffff1661178d6114db565b73ffffffffffffffffffffffffffffffffffffffff16146117e3576040517f08c379a00000000000000000000000000000000000000000000000000000000081526004016117da9061332c565b60405180910390fd5b80600890805190602001906117f9929190612767565b5050565b6000600560008473ffffffffffffffffffffffffffffffffffffffff1673ffffffffffffffffffffffffffffffffffffffff16815260200190815260200160002060008373ffffffffffffffffffffffffffffffffffffffff1673ffffffffffffffffffffffffffffffffffffffff16815260200190815260200160002060009054906101000a900460ff16905092915050565b6118996119f8565b73ffffffffffffffffffffffffffffffffffffffff166118b76114db565b73ffffffffffffffffffffffffffffffffffffffff161461190d576040517f08c379a00000000000000000000000000000000000000000000000000000000081526004016119049061332c565b60405180910390fd5b600073ffffffffffffffffffffffffffffffffffffffff168173ffffffffffffffffffffffffffffffffffffffff16141561197d576040517f08c379a0000000000000000000000000000000000000000000000000000000008152600401611974906131cc565b60405180910390fd5b61198681611eb8565b50565b601581565b60007f01ffc9a7000000000000000000000000000000000000000000000000000000007bffffffffffffffffffffffffffffffffffffffffffffffffffffffff1916827bffffffffffffffffffffffffffffffffffffffffffffffffffffffff1916149050919050565b600033905090565b60008073ffffffffffffffffffffffffffffffffffffffff166002600084815260200190815260200160002060009054906101000a900473ffffffffffffffffffffffffffffffffffffffff1673ffffffffffffffffffffffffffffffffffffffff1614159050919050565b816004600083815260200190815260200160002060006101000a81548173ffffffffffffffffffffffffffffffffffffffff021916908373ffffffffffffffffffffffffffffffffffffffff160217905550808273ffffffffffffffffffffffffffffffffffffffff16611adf8361125b565b73ffffffffffffffffffffffffffffffffffffffff167f8c5be1e5ebec7d5bd14f71427d1e84f3dd0314c0f7b2291e5b200ac8c7c3b92560405160405180910390a45050565b600081600001549050919050565b6000611b3e82611a00565b611b7d576040517f08c379a0000000000000000000000000000000000000000000000000000000008152600401611b749061326c565b60405180910390fd5b6000611b888361125b565b90508073ffffffffffffffffffffffffffffffffffffffff168473ffffffffffffffffffffffffffffffffffffffff161480611bf757508373ffffffffffffffffffffffffffffffffffffffff16611bdf846109bf565b73ffffffffffffffffffffffffffffffffffffffff16145b80611c085750611c0781856117fd565b5b91505092915050565b8273ffffffffffffffffffffffffffffffffffffffff16611c318261125b565b73ffffffffffffffffffffffffffffffffffffffff1614611c87576040517f08c379a0000000000000000000000000000000000000000000000000000000008152600401611c7e906131ec565b60405180910390fd5b600073ffffffffffffffffffffffffffffffffffffffff168273ffffffffffffffffffffffffffffffffffffffff161415611cf7576040517f08c379a0000000000000000000000000000000000000000000000000000000008152600401611cee9061322c565b60405180910390fd5b611d0283838361233a565b611d0d600082611a6c565b6001600360008573ffffffffffffffffffffffffffffffffffffffff1673ffffffffffffffffffffffffffffffffffffffff1681526020019081526020016000206000828254611d5d91906135eb565b925050819055506001600360008473ffffffffffffffffffffffffffffffffffffffff1673ffffffffffffffffffffffffffffffffffffffff1681526020019081526020016000206000828254611db4919061350a565b92505081905550816002600083815260200190815260200160002060006101000a81548173ffffffffffffffffffffffffffffffffffffffff021916908373ffffffffffffffffffffffffffffffffffffffff160217905550808273ffffffffffffffffffffffffffffffffffffffff168473ffffffffffffffffffffffffffffffffffffffff167fddf252ad1be2c89b69c2b068fc378daa952ba7f163c4a11628f55a4df523b3ef60405160405180910390a4611e7383838361233f565b505050565b60005b81811015611eb357611e8d600a612344565b611ea083611e9b600a611b25565b61235a565b8080611eab90613738565b915050611e7b565b505050565b6000600660009054906101000a900473ffffffffffffffffffffffffffffffffffffffff16905081600660006101000a81548173ffffffffffffffffffffffffffffffffffffffff021916908373ffffffffffffffffffffffffffffffffffffffff1602179055508173ffffffffffffffffffffffffffffffffffffffff168173ffffffffffffffffffffffffffffffffffffffff167f8be0079c531659141344cd1fd0a4f28419497f9722a3daafe3b4186f6b6457e060405160405180910390a35050565b8173ffffffffffffffffffffffffffffffffffffffff168373ffffffffffffffffffffffffffffffffffffffff161415611fed576040517f08c379a0000000000000000000000000000000000000000000000000000000008152600401611fe49061324c565b60405180910390fd5b80600560008573ffffffffffffffffffffffffffffffffffffffff1673ffffffffffffffffffffffffffffffffffffffff16815260200190815260200160002060008473ffffffffffffffffffffffffffffffffffffffff1673ffffffffffffffffffffffffffffffffffffffff16815260200190815260200160002060006101000a81548160ff0219169083151502179055508173ffffffffffffffffffffffffffffffffffffffff168373ffffffffffffffffffffffffffffffffffffffff167f17307eab39ab6107e8899845ad3d59bd9653f200f220920489ca2b5937696c31836040516120de919061314f565b60405180910390a3505050565b6120f6848484611c11565b61210284848484612378565b612141576040517f08c379a0000000000000000000000000000000000000000000000000000000008152600401612138906131ac565b60405180910390fd5b50505050565b606060078054612156906136d5565b80601f0160208091040260200160405190810160405280929190818152602001828054612182906136d5565b80156121cf5780601f106121a4576101008083540402835291602001916121cf565b820191906000526020600020905b8154815290600101906020018083116121b257829003601f168201915b5050505050905090565b60606000821415612221576040518060400160405280600181526020017f30000000000000000000000000000000000000000000000000000000000000008152509050612335565b600082905060005b6000821461225357808061223c90613738565b915050600a8261224c9190613560565b9150612229565b60008167ffffffffffffffff81111561226f5761226e61386e565b5b6040519080825280601f01601f1916602001820160405280156122a15781602001600182028036833780820191505090505b5090505b6000851461232e576001826122ba91906135eb565b9150600a856122c99190613781565b60306122d5919061350a565b60f81b8183815181106122eb576122ea61383f565b5b60200101907effffffffffffffffffffffffffffffffffffffffffffffffffffffffffffff1916908160001a905350600a856123279190613560565b94506122a5565b8093505050505b919050565b505050565b505050565b6001816000016000828254019250508190555050565b61237482826040518060200160405280600081525061250f565b5050565b60006123998473ffffffffffffffffffffffffffffffffffffffff1661256a565b15612502578373ffffffffffffffffffffffffffffffffffffffff1663150b7a026123c26119f8565b8786866040518563ffffffff1660e01b81526004016123e494939291906130e1565b602060405180830381600087803b1580156123fe57600080fd5b505af192505050801561242f57506040513d601f19601f8201168201806040525081019061242c9190612b70565b60015b6124b2573d806000811461245f576040519150601f19603f3d011682016040523d82523d6000602084013e612464565b606091505b506000815114156124aa576040517f08c379a00000000000000000000000000000000000000000000000000000000081526004016124a1906131ac565b60405180910390fd5b805181602001fd5b63150b7a0260e01b7bffffffffffffffffffffffffffffffffffffffffffffffffffffffff1916817bffffffffffffffffffffffffffffffffffffffffffffffffffffffff191614915050612507565b600190505b949350505050565b612519838361258d565b6125266000848484612378565b612565576040517f08c379a000000000000000000000000000000000000000000000000000000000815260040161255c906131ac565b60405180910390fd5b505050565b6000808273ffffffffffffffffffffffffffffffffffffffff163b119050919050565b600073ffffffffffffffffffffffffffffffffffffffff168273ffffffffffffffffffffffffffffffffffffffff1614156125fd576040517f08c379a00000000000000000000000000000000000000000000000000000000081526004016125f4906132ec565b60405180910390fd5b61260681611a00565b15612646576040517f08c379a000000000000000000000000000000000000000000000000000000000815260040161263d9061320c565b60405180910390fd5b6126526000838361233a565b6001600360008473ffffffffffffffffffffffffffffffffffffffff1673ffffffffffffffffffffffffffffffffffffffff16815260200190815260200160002060008282546126a2919061350a565b92505081905550816002600083815260200190815260200160002060006101000a81548173ffffffffffffffffffffffffffffffffffffffff021916908373ffffffffffffffffffffffffffffffffffffffff160217905550808273ffffffffffffffffffffffffffffffffffffffff16600073ffffffffffffffffffffffffffffffffffffffff167fddf252ad1be2c89b69c2b068fc378daa952ba7f163c4a11628f55a4df523b3ef60405160405180910390a46127636000838361233f565b5050565b828054612773906136d5565b90600052602060002090601f01602090048101928261279557600085556127dc565b82601f106127ae57805160ff19168380011785556127dc565b828001600101855582156127dc579182015b828111156127db5782518255916020019190600101906127c0565b5b5090506127e991906127ed565b5090565b5b808211156128065760008160009055506001016127ee565b5090565b600061281d6128188461340c565b6133e7565b905082815260208101848484011115612839576128386138a2565b5b612844848285613693565b509392505050565b600061285f61285a8461343d565b6133e7565b90508281526020810184848401111561287b5761287a6138a2565b5b612886848285613693565b509392505050565b60008135905061289d81613d6f565b92915050565b6000813590506128b281613d86565b92915050565b6000813590506128c781613d9d565b92915050565b6000815190506128dc81613d9d565b92915050565b600082601f8301126128f7576128f661389d565b5b813561290784826020860161280a565b91505092915050565b600082601f8301126129255761292461389d565b5b813561293584826020860161284c565b91505092915050565b60008135905061294d81613db4565b92915050565b600060208284031215612969576129686138ac565b5b60006129778482850161288e565b91505092915050565b60008060408385031215612997576129966138ac565b5b60006129a58582860161288e565b92505060206129b68582860161288e565b9150509250929050565b6000806000606084860312156129d9576129d86138ac565b5b60006129e78682870161288e565b93505060206129f88682870161288e565b9250506040612a098682870161293e565b9150509250925092565b60008060008060808587031215612a2d57612a2c6138ac565b5b6000612a3b8782880161288e565b9450506020612a4c8782880161288e565b9350506040612a5d8782880161293e565b925050606085013567ffffffffffffffff811115612a7e57612a7d6138a7565b5b612a8a878288016128e2565b91505092959194509250565b60008060408385031215612aad57612aac6138ac565b5b6000612abb8582860161288e565b9250506020612acc858286016128a3565b9150509250929050565b60008060408385031215612aed57612aec6138ac565b5b6000612afb8582860161288e565b9250506020612b0c8582860161293e565b9150509250929050565b600060208284031215612b2c57612b2b6138ac565b5b6000612b3a848285016128a3565b91505092915050565b600060208284031215612b5957612b586138ac565b5b6000612b67848285016128b8565b91505092915050565b600060208284031215612b8657612b856138ac565b5b6000612b94848285016128cd565b91505092915050565b600060208284031215612bb357612bb26138ac565b5b600082013567ffffffffffffffff811115612bd157612bd06138a7565b5b612bdd84828501612910565b91505092915050565b600060208284031215612bfc57612bfb6138ac565b5b6000612c0a8482850161293e565b91505092915050565b6000612c1f8383613062565b60208301905092915050565b612c348161361f565b82525050565b6000612c4582613493565b612c4f81856134c1565b9350612c5a8361346e565b8060005b83811015612c8b578151612c728882612c13565b9750612c7d836134b4565b925050600181019050612c5e565b5085935050505092915050565b612ca181613631565b82525050565b6000612cb28261349e565b612cbc81856134d2565b9350612ccc8185602086016136a2565b612cd5816138b1565b840191505092915050565b6000612ceb826134a9565b612cf581856134ee565b9350612d058185602086016136a2565b612d0e816138b1565b840191505092915050565b6000612d24826134a9565b612d2e81856134ff565b9350612d3e8185602086016136a2565b80840191505092915050565b60008154612d57816136d5565b612d6181866134ff565b94506001821660008114612d7c5760018114612d8d57612dc0565b60ff19831686528186019350612dc0565b612d968561347e565b60005b83811015612db857815481890152600182019150602081019050612d99565b838801955050505b50505092915050565b6000612dd66013836134ee565b9150612de1826138c2565b602082019050919050565b6000612df96032836134ee565b9150612e04826138eb565b604082019050919050565b6000612e1c6026836134ee565b9150612e278261393a565b604082019050919050565b6000612e3f6025836134ee565b9150612e4a82613989565b604082019050919050565b6000612e62601c836134ee565b9150612e6d826139d8565b602082019050919050565b6000612e856024836134ee565b9150612e9082613a01565b604082019050919050565b6000612ea86019836134ee565b9150612eb382613a50565b602082019050919050565b6000612ecb602c836134ee565b9150612ed682613a79565b604082019050919050565b6000612eee6038836134ee565b9150612ef982613ac8565b604082019050919050565b6000612f11602a836134ee565b9150612f1c82613b17565b604082019050919050565b6000612f346029836134ee565b9150612f3f82613b66565b604082019050919050565b6000612f576020836134ee565b9150612f6282613bb5565b602082019050919050565b6000612f7a602c836134ee565b9150612f8582613bde565b604082019050919050565b6000612f9d6020836134ee565b9150612fa882613c2d565b602082019050919050565b6000612fc0602f836134ee565b9150612fcb82613c56565b604082019050919050565b6000612fe36021836134ee565b9150612fee82613ca5565b604082019050919050565b60006130066000836134e3565b915061301182613cf4565b600082019050919050565b60006130296031836134ee565b915061303482613cf7565b604082019050919050565b600061304c6013836134ee565b915061305782613d46565b602082019050919050565b61306b81613689565b82525050565b61307a81613689565b82525050565b600061308c8286612d19565b91506130988285612d19565b91506130a48284612d4a565b9150819050949350505050565b60006130bc82612ff9565b9150819050919050565b60006020820190506130db6000830184612c2b565b92915050565b60006080820190506130f66000830187612c2b565b6131036020830186612c2b565b6131106040830185613071565b81810360608301526131228184612ca7565b905095945050505050565b600060208201905081810360008301526131478184612c3a565b905092915050565b60006020820190506131646000830184612c98565b92915050565b600060208201905081810360008301526131848184612ce0565b905092915050565b600060208201905081810360008301526131a581612dc9565b9050919050565b600060208201905081810360008301526131c581612dec565b9050919050565b600060208201905081810360008301526131e581612e0f565b9050919050565b6000602082019050818103600083015261320581612e32565b9050919050565b6000602082019050818103600083015261322581612e55565b9050919050565b6000602082019050818103600083015261324581612e78565b9050919050565b6000602082019050818103600083015261326581612e9b565b9050919050565b6000602082019050818103600083015261328581612ebe565b9050919050565b600060208201905081810360008301526132a581612ee1565b9050919050565b600060208201905081810360008301526132c581612f04565b9050919050565b600060208201905081810360008301526132e581612f27565b9050919050565b6000602082019050818103600083015261330581612f4a565b9050919050565b6000602082019050818103600083015261332581612f6d565b9050919050565b6000602082019050818103600083015261334581612f90565b9050919050565b6000602082019050818103600083015261336581612fb3565b9050919050565b6000602082019050818103600083015261338581612fd6565b9050919050565b600060208201905081810360008301526133a58161301c565b9050919050565b600060208201905081810360008301526133c58161303f565b9050919050565b60006020820190506133e16000830184613071565b92915050565b60006133f1613402565b90506133fd8282613707565b919050565b6000604051905090565b600067ffffffffffffffff8211156134275761342661386e565b5b613430826138b1565b9050602081019050919050565b600067ffffffffffffffff8211156134585761345761386e565b5b613461826138b1565b9050602081019050919050565b6000819050602082019050919050565b60008190508160005260206000209050919050565b600081519050919050565b600081519050919050565b600081519050919050565b6000602082019050919050565b600082825260208201905092915050565b600082825260208201905092915050565b600081905092915050565b600082825260208201905092915050565b600081905092915050565b600061351582613689565b915061352083613689565b9250827fffffffffffffffffffffffffffffffffffffffffffffffffffffffffffffffff03821115613555576135546137b2565b5b828201905092915050565b600061356b82613689565b915061357683613689565b925082613586576135856137e1565b5b828204905092915050565b600061359c82613689565b91506135a783613689565b9250817fffffffffffffffffffffffffffffffffffffffffffffffffffffffffffffffff04831182151516156135e0576135df6137b2565b5b828202905092915050565b60006135f682613689565b915061360183613689565b925082821015613614576136136137b2565b5b828203905092915050565b600061362a82613669565b9050919050565b60008115159050919050565b60007fffffffff0000000000000000000000000000000000000000000000000000000082169050919050565b600073ffffffffffffffffffffffffffffffffffffffff82169050919050565b6000819050919050565b82818337600083830152505050565b60005b838110156136c05780820151818401526020810190506136a5565b838111156136cf576000848401525b50505050565b600060028204905060018216806136ed57607f821691505b6020821081141561370157613700613810565b5b50919050565b613710826138b1565b810181811067ffffffffffffffff8211171561372f5761372e61386e565b5b80604052505050565b600061374382613689565b91507fffffffffffffffffffffffffffffffffffffffffffffffffffffffffffffffff821415613776576137756137b2565b5b600182019050919050565b600061378c82613689565b915061379783613689565b9250826137a7576137a66137e1565b5b828206905092915050565b7f4e487b7100000000000000000000000000000000000000000000000000000000600052601160045260246000fd5b7f4e487b7100000000000000000000000000000000000000000000000000000000600052601260045260246000fd5b7f4e487b7100000000000000000000000000000000000000000000000000000000600052602260045260246000fd5b7f4e487b7100000000000000000000000000000000000000000000000000000000600052603260045260246000fd5b7f4e487b7100000000000000000000000000000000000000000000000000000000600052604160045260246000fd5b600080fd5b600080fd5b600080fd5b600080fd5b6000601f19601f8301169050919050565b7f4d617820737570706c7920657863656564656400000000000000000000000000600082015250565b7f4552433732313a207472616e7366657220746f206e6f6e20455243373231526560008201527f63656976657220696d706c656d656e7465720000000000000000000000000000602082015250565b7f4f776e61626c653a206e6577206f776e657220697320746865207a65726f206160008201527f6464726573730000000000000000000000000000000000000000000000000000602082015250565b7f4552433732313a207472616e736665722066726f6d20696e636f72726563742060008201527f6f776e6572000000000000000000000000000000000000000000000000000000602082015250565b7f4552433732313a20746f6b656e20616c7265616479206d696e74656400000000600082015250565b7f4552433732313a207472616e7366657220746f20746865207a65726f2061646460008201527f7265737300000000000000000000000000000000000000000000000000000000602082015250565b7f4552433732313a20617070726f766520746f2063616c6c657200000000000000600082015250565b7f4552433732313a206f70657261746f7220717565727920666f72206e6f6e657860008201527f697374656e7420746f6b656e0000000000000000000000000000000000000000602082015250565b7f4552433732313a20617070726f76652063616c6c6572206973206e6f74206f7760008201527f6e6572206e6f7220617070726f76656420666f7220616c6c0000000000000000602082015250565b7f4552433732313a2062616c616e636520717565727920666f7220746865207a6560008201527f726f206164647265737300000000000000000000000000000000000000000000602082015250565b7f4552433732313a206f776e657220717565727920666f72206e6f6e657869737460008201527f656e7420746f6b656e0000000000000000000000000000000000000000000000602082015250565b7f4552433732313a206d696e7420746f20746865207a65726f2061646472657373600082015250565b7f4552433732313a20617070726f76656420717565727920666f72206e6f6e657860008201527f697374656e7420746f6b656e0000000000000000000000000000000000000000602082015250565b7f4f776e61626c653a2063616c6c6572206973206e6f7420746865206f776e6572600082015250565b7f4552433732314d657461646174613a2055524920717565727920666f72206e6f60008201527f6e6578697374656e7420746f6b656e0000000000000000000000000000000000602082015250565b7f4552433732313a20617070726f76616c20746f2063757272656e74206f776e6560008201527f7200000000000000000000000000000000000000000000000000000000000000602082015250565b50565b7f4552433732313a207472616e736665722063616c6c6572206973206e6f74206f60008201527f776e6572206e6f7220617070726f766564000000000000000000000000000000602082015250565b7f496e76616c6964206d696e7420616d6f756e7400000000000000000000000000600082015250565b613d788161361f565b8114613d8357600080fd5b50565b613d8f81613631565b8114613d9a57600080fd5b50565b613da68161363d565b8114613db157600080fd5b50565b613dbd81613689565b8114613dc857600080fd5b5056fea2646970667358221220069494eda20735ef735dc285b3ab0e998e2f0b8597fe39e3158e36e28575f4d364736f6c63430008070033",
  "immutableReferences": {},
  "source": "// SPDX-License-Identifier: MIT\n\npragma solidity 0.8.7;\n\nimport \"@openzeppelin/contracts/token/ERC721/ERC721.sol\";\nimport \"@openzeppelin/contracts/utils/Counters.sol\";\nimport \"@openzeppelin/contracts/access/Ownable.sol\";\n\ncontract StephenResume is ERC721, Ownable {\n  using Strings for uint256;\n  using Counters for Counters.Counter;\n\n  string public baseURI;\n  string public baseExtension = \".json\";\n  uint256 public cost = 0.05 ether;\n  uint256 public constant MAX_SUPPLY = 1000;\n  uint256 public constant MAX_MINT_AMOUNT = 21; // Set to one higher than actual, to save gas on lte/gte checks.\n  Counters.Counter private currentTokenId;\n  bool public paused = false;\n  mapping(address => bool) public whitelisted;\n\n  modifier enoughSupply(uint256 _mintAmount) {\n    require(\n      _mintAmount > 0 && _mintAmount < MAX_MINT_AMOUNT,\n        \"Invalid mint amount\"\n      );\n    require(\n      totalSupply() + _mintAmount <= MAX_SUPPLY,\n        \"Max supply exceeded\"\n      );\n    _;\n  }\n\n  function totalSupply() public view returns (uint256) {\n    return currentTokenId.current();\n  }\n\n  constructor() ERC721(\"Stephen Resume\", \"SR\") {}\n\n  // internal\n  function _baseURI() internal view virtual override returns (string memory) {\n    return baseURI;\n  }\n\n  // public\n  function mint(address _to, uint256 _mintAmount)\n    public\n    payable\n    enoughSupply(_mintAmount)\n  {\n    require(!paused);\n\n    if (msg.sender != owner()) {\n        if(whitelisted[msg.sender] != true) {\n          require(msg.value >= cost * _mintAmount);\n        }\n    }\n\n    _mintLoop(_to, _mintAmount);\n  }\n\n  function _mintLoop(address _receiver, uint256 _mintAmount) internal {\n    for (uint256 i = 0; i < _mintAmount; i++) {\n      currentTokenId.increment();\n      _safeMint(_receiver, currentTokenId.current());\n    }\n  }\n\n  function walletOfOwner(address _owner)\n    public\n    view\n    returns (uint256[] memory)\n  {\n    uint256 ownerTokenCount = balanceOf(_owner);\n    uint256[] memory ownedTokenIds = new uint256[](ownerTokenCount);\n    uint256 currentIndex = 1;\n    uint256 ownedTokenIndex = 0;\n\n    while (\n        ownedTokenIndex < ownerTokenCount && currentIndex <= MAX_SUPPLY\n    ) {\n        address currentTokenOwner = ownerOf(currentIndex);\n\n        if (currentTokenOwner == _owner) {\n            ownedTokenIds[ownedTokenIndex] = currentIndex;\n            ownedTokenIndex++;\n        }\n\n        currentIndex++;\n    }\n\n    return ownedTokenIds;\n  }\n\n  function tokenURI(uint256 tokenId)\n    public\n    view\n    virtual\n    override\n    returns (string memory)\n  {\n    require(\n      _exists(tokenId),\n      \"ERC721Metadata: URI query for nonexistent token\"\n    );\n\n    string memory currentBaseURI = _baseURI();\n    return bytes(currentBaseURI).length > 0\n        ? string(abi.encodePacked(currentBaseURI, tokenId.toString(), baseExtension))\n        : \"\";\n  }\n\n  // only owner\n  function setCost(uint256 _newCost) public onlyOwner {\n    cost = _newCost;\n  }\n\n  function setBaseURI(string memory _newBaseURI) public onlyOwner {\n    baseURI = _newBaseURI;\n  }\n\n  function setBaseExtension(string memory _newBaseExtension) public onlyOwner {\n    baseExtension = _newBaseExtension;\n  }\n\n  function pause(bool _state) public onlyOwner {\n    paused = _state;\n  }\n \n function whitelistUser(address _user) public onlyOwner {\n    whitelisted[_user] = true;\n  }\n \n  function removeWhitelistUser(address _user) public onlyOwner {\n    whitelisted[_user] = false;\n  }\n\n  function withdraw() public payable onlyOwner {\n    (bool os, ) = payable(owner()).call{value: address(this).balance}(\"\");\n    require(os);\n  }\n}",
  "sourcePath": "/home/stephen/project/stephen-resume/contracts/StephenResume.sol",
  "compiler": {
    "name": "solc",
    "version": "0.8.7+commit.e28d00a7.Emscripten.clang"
  },
  "schemaVersion": "3.4.7",
  "updatedAt": "2022-06-06T10:21:56.217Z",
  "devdoc": {
    "kind": "dev",
    "methods": {
      "approve(address,uint256)": {
        "details": "See {IERC721-approve}."
      },
      "balanceOf(address)": {
        "details": "See {IERC721-balanceOf}."
      },
      "getApproved(uint256)": {
        "details": "See {IERC721-getApproved}."
      },
      "isApprovedForAll(address,address)": {
        "details": "See {IERC721-isApprovedForAll}."
      },
      "name()": {
        "details": "See {IERC721Metadata-name}."
      },
      "owner()": {
        "details": "Returns the address of the current owner."
      },
      "ownerOf(uint256)": {
        "details": "See {IERC721-ownerOf}."
      },
      "renounceOwnership()": {
        "details": "Leaves the contract without owner. It will not be possible to call `onlyOwner` functions anymore. Can only be called by the current owner. NOTE: Renouncing ownership will leave the contract without an owner, thereby removing any functionality that is only available to the owner."
      },
      "safeTransferFrom(address,address,uint256)": {
        "details": "See {IERC721-safeTransferFrom}."
      },
      "safeTransferFrom(address,address,uint256,bytes)": {
        "details": "See {IERC721-safeTransferFrom}."
      },
      "setApprovalForAll(address,bool)": {
        "details": "See {IERC721-setApprovalForAll}."
      },
      "supportsInterface(bytes4)": {
        "details": "See {IERC165-supportsInterface}."
      },
      "symbol()": {
        "details": "See {IERC721Metadata-symbol}."
      },
      "tokenURI(uint256)": {
        "details": "See {IERC721Metadata-tokenURI}."
      },
      "transferFrom(address,address,uint256)": {
        "details": "See {IERC721-transferFrom}."
      },
      "transferOwnership(address)": {
        "details": "Transfers ownership of the contract to a new account (`newOwner`). Can only be called by the current owner."
      }
    },
    "version": 1
  },
  "userdoc": {
    "kind": "user",
    "methods": {},
    "version": 1
  }
}